:10000000DBEF05F00000000000EF00F00000000052
:0A0010000000000000000000F3D71C
:06001C00000000001200CC
:100022000F0E0C6E470E0D6E0D2EFED70C2EFCD74A
:06003200000000001200B6
:0A003800210E0D6E0D2EFED71200F2
:0E004200026A016A006A086A036A000E120070
:100050000B820BAE32EF00F00368026801680068A3
:080060000A360232FF0E120005
:080068000AAE029E000E120018
:10007000000165BF02D0819E01D0818E65BD02D096
:10008000819C01D0818C65BB02D0819A01D0818A8C
:1000900065B902D0819801D081884EB002D08184A8
:1000A00001D081948186BADF819665B702D0819EA6
:1000B00001D0818E65B502D0819C01D0818C65B361
:1000C00002D0819A01D0818A65B102D0819801D095
:1000D00081884EB002D0818401D0819481869EDFD8
:0E00E00081964EA002D09DDF01D0A6DF120057
:1000EE000B840BAE82EF00F0010E036E026A016A02
:0A00FE00006A0A360232FF0E1200FB
:1001080061C004F062C005F004C002F005C003F04D
:10011800044A052A63C000F064C001F00001634B83
:10012800642B00C0E9FF01C0EAFF02C0E1FF03C081
:10013800E2FFEECFE6FF02C0E9FF03C0EAFFEE529E
:0E01480001E0E2D761C000F062C001F01200D9
:100156000A6A0350D8A40A800750D8A40A820A5013
:10016600D8B40EEF01F0030AD8B4C7EF00F00AB016
:10017600C2EF00F006AE0CEF01F00AEF01F002AE9E
:100186000AEF01F00CEF01F00250800B0A6E029E9E
:100196000650800B069E0A18D8B4D8EF00F00A5015
:1001A600D8B40AEF01F00CEF01F00750035CD8B4A5
:1001B600E2EF00F0D8A0FEEF00F004EF01F00650E9
:1001C600025CD8B4ECEF00F0D8A0FEEF00F004EF2C
:1001D60001F00550015CD8B4F6EF00F0D8A0FEEFB0
:1001E60000F004EF01F00450005CD8B40EEF01F00B
:1001F600D8B004EF01F00A52D8B40CEF01F00AEFC0
:1002060001F00A52D8B40AEF01F00CEF01F0D880E1
:0E0216001200D8901200D880D8841200120076
:0C0224004E9061C065F022DF4E80120099
:100230000D6A086A0050D8B4000C04180A6E0ABE91
:100240000D1E0B6A04AE02D0041E042A00AE02D0BA
:10025000001E002A005004100A6E0ABE1FD004506F
:10026000085E003600340836045008260036060EB4
:100270000C6E00340836045000B0085E00A008265A
:1002800000360C2EF6D700A008260BB015D00DAE08
:10029000000C001E002A081E082A000C04AE09D01B
:1002A00000BE04D00050086E006AF1D7006A002A30
:1002B000000C001E0B2AD3D7082A0450085CD8A4CF
:0E02C000E6D7086A002A00AEE2D7FF0C120053
:0C02CE000E0E0D6E0D2EFED7000012006B
:1002DA000C6A0E6A0250D8A486EF01F001C002F03F
:1002EA0000C001F0006A0E860250D8A486EF01F021
:1002FA0001C002F0016A0E960E880250D8B498EF37
:10030A0001F00E50035ED8A4D8A09DEF01F0D8905A
:10031A0002BEA2EF01F0003601360236032E8DEF3F
:10032A0001F09DEF01F0010E0C6E86DEA5EF01F0E3
:10033A00020E0C6ED7DEA5EF01F0040E0C6E8FDEF6
:02034A0012009F
:10034C00086A096A000E076203642BEF02F0025080
:10035C0006180A6E075003267E0ED8A0BCEF01F0DB
:10036C00035ED8B02FEF02F0C0EF01F0035ED8A00F
:10037C0033EF02F0028E068E02C00EF001C00BF0BD
:10038C0000C00DF000500402F4CF0CF00150050237
:10039C00F4CF00F0F3CF08F00402F3500C26F45025
:1003AC000822000E00220D500502F3500C26F450CA
:1003BC000822000E002202500402F3500826F450CA
:1003CC00002202500502016A000E0122F3500026A1
:1003DC00F45001220D500602F3500826F45000226E
:1003EC00026A000E012202220B500602F350002674
:1003FC00F4500122000E02220E500602F350012688
:10040C00F450022202BE13EF02F008360036013619
:10041C0002360306D8B433EF02F026EF02F0D88090
:10042C00800E08640030000E002201220222D8A0A7
:10043C0026EF02F0023201320032034A2FEF02F0B3
:10044C000AAE029E000E35EF02F0010EF4DD35EF20
:10045C0002F0020EF7DD35EF02F0040E42DE120060
:08046C000B6A0B86FF0E120063
:10047400C26A291C006E0050C116070EC012C08E3D
:1004840053C000F000360090003600900050C212B5
:10049400C2801BDFC282C2A201D0FDD7C4CF01F04B
:0E04A400006AC3500012000E0112C290120036
:1004B2000900F5CFE6FF0006FBE10106F9E11200B3
:1004C200FF0E4F6EFF0E506EFF0E516EFF0E526EFC
:1004D200C26A291C006E0050C116070EC012C08EDF
:0404E200C2801200C2
:1004E600939693949398939A939C939E81968194D2
:1004F600819E819C819A819891DD90DD8FDD818A34
:100506008188818688DD819689DD818684DD819674
:1005160085DD818680DD819681DD819881867BDD22
:1005260081967CDD818677DD8196819A818E8186B2
:1005360072DD819673DD819E818881866CDD819670
:100546008198818668DD819669DD818664DD819684
:100556008188818660DD819661DD819881865BDD9B
:100566008196818E818C818A8188818654DD8196EF
:0605760055DD4E8012006D
:10057C000450000A12E10550000A0FE10650000A6F
:10058C000CE10750000A09E1FF0E006EFF0E016E30
:10059C007F0E026EFF0E036EA4D0086A096A075024
:1005AC00D8B469EF03F00350D8B46DEF03F00250E8
:1005BC0006180A6E028E068E0E6A02C008F001C082
:1005CC000CF000C00DF004500D5E0550D8A0053C99
:1005DC000C5E0650D8A0063C085E086A0C6A0D6AD0
:1005EC00D8A000EF03F0D89002320132003208326A
:1005FC00010E0E6E0750035ED8A00DEF03F07E0EB9
:10060C000E240326D8B071EF03F013EF03F07E0E27
:10061C000E240326D8A075EF03F0180E0B6E0D36C2
:10062C000C3608360036013602360E360450005EA3
:10063C000550D8A0053C015E0650D8A0063C025ED1
:10064C0006340E120EA02EEF03F00D8039EF03F0DE
:10065C00045000260550D8B0053C01260650D8B0F1
:10066C00062802260D900B2E15EF03F05FEF03F01A
:10067C00D8900036013602360E360450005E055016
:10068C00D8A0053C015E0650D8A0063C025E06349C
:10069C000E10010B0D26D8B00C2AD8B4082AD8A4F9
:1006AC005FEF03F008320C320D32032AD8B471EF2D
:1006BC0003F00AAE089E0850026E0C50016E0D50ED
:1006CC00006E77EF03F0010ECBDE77EF03F0020E36
:1006DC00B2DC77EF03F0040EB5DC77EF03F0080E15
:0406EC0000DD12001B
:1006F0005F6A0001606B53C05BF054C05CF055C092
:100700005DF056C05EF05E50FF0A08E15D50FF0AE2
:1007100005E15C50FF0A02E15B50FF0A0CE157C0A3
:1007200061F058C062F02C0E636F000E646FECDC59
:10073000030E006EEBD1010E596E5DAE0ED0800E31
:100740005D18006E00C05DF0592A57C0E1FF58C027
:10075000E2FF2D0EE66E574A582A000E006E5E1814
:1007600008E100505D1805E100505C1802E15B50A3
:10077000000A0BE157C061F058C062F02A0E636FA7
:10078000000E646FC1DC006AC1D15E50FF0A08E14F
:100790005D50000A05E15C50000A02E15B50000A6E
:1007A0000CE157C061F058C062F0250E636F000E77
:1007B000646FAADC59C000F0A9D1000E046E000ECF
:1007C000056E000E066E7F0E076E5BC000F05CC00B
:1007D00001F05DC002F05EC003F0BDDC010ED8B0D8
:1007E000000E006E00521BE05BC000F05CC001F028
:1007F0005DC002F05EC003F0000E046E000E056ED8
:10080000200E066E820E076EA1DD00C05BF001C0F7
:100810005CF002C05DF003C05EF06007CED7000E52
:10082000046E000E056E200E066E820E076E5BC013
:1008300000F05CC001F05DC002F05EC003F08BDC34
:10084000000ED8B0010E006E00521BE05BC000F03D
:100850005CC001F05DC002F05EC003F0CD0E046E1E
:10086000CC0E056E4C0E066E7B0E076E6FDD00C063
:100870005BF001C05CF002C05DF003C05EF0602B75
:10088000CED7FF0E5B14086EFF0E5C14096E7F0E50
:100890005D140A6E000E5E140B6E08C004F009C0F1
:1008A00005F00AC006F00BC007F0043604900536C8
:1008B00006360736000E5B14006E000E5C14016EE7
:1008C000000E5D14026EFF0E5E14036E00C05BF03E
:1008D00001C05CF002C05DF003C05EF004505B102C
:1008E000006E05505C10016E06505D10026E0750E0
:1008F0005E10036E00C05BF001C05CF002C05DF0F2
:1009000003C05EF07F0E5E5C006E00C05AF0010E08
:100910005E6E00C004F05BC000F05CC001F05DC022
:1009200002F05EC003F0045007E00036009001368C
:1009300002360336FF0FF8D700C05BF001C05CF051
:1009400002C05DF003C05EF057C0E1FF58C0E2FF97
:100950005E50300FE66E574A582A800E6019006EBE
:10096000800E010A005C08E3800E060A006E800E0D
:100970006019005C01E30AD057C0E1FF58C0E2FFF4
:100980002E0EE66E574A582A010E5F6E060E5A6EFC
:100990005A50000A54E05E6A5BC000F05CC001F08F
:1009A0005DC002F05EC003F00036009001360236F2
:1009B0000336003600900136023603365B500026BF
:1009C0005C5001225D5002225E50032200C05BF0A9
:1009D00001C05CF002C05DF003C05EF05BC000F0DF
:1009E0005CC001F05DC002F05EC003F00036009014
:1009F00001360236033600C05BF001C05CF002C075
:100A00005DF003C05EF057C0E1FF58C0E2FF5E50EA
:100A1000300FE66E574A582A5F50000A0EE1600711
:100A20006051000A0AE157C0E1FF58C0E2FF2E0EF4
:100A3000E66E574A582A010E5F6E5A06A9D7FF0E76
:100A40005724E96EFF0E5820EA6EEE50300A05E199
:100A5000010E575E000E585AF2D7FF0E5724E96E6A
:100A6000FF0E5820EA6EEE502E0A04E1010E575E8A
:100A7000000E585A6051000A43E057C0E1FF58C0C9
:100A8000E2FF650EE66E574A582A800E6019006E26
:100A9000800E000A005C0BE257C0E1FF58C0E2FF85
:100AA0002D0EE66E574A582A60510008606F60C0EC
:100AB0005AF0800E090A006E800E6019005C0FE289
:100AC0000A0E046E5AC000F018EC01F057C0E1FFA6
:100AD00058C0E2FF0050300FE66E574A582A0A0EFF
:100AE000046E5AC000F018EC01F008C000F057C0C6
:100AF000E1FF58C0E2FF0050300FE66E574A582A17
:0E0B000057C0E1FF58C0E2FFE66A006A12002B
:100B0E000050086E0150006E016A026A036A0B6A99
:100B1E000C6A960E036E0A6A00C001F008C000F05F
:0A0B2E00086A026A6DEC01F0120083
:100B38000FD0800E536E19D0C00E536E16D0940E7F
:100B4800536E13D0D40E536E10D0800E536E0DD04A
:100B58005350010AEEE05350020AEEE05350030AE4
:100B6800EEE05350040AEEE0F0D75404006E535000
:100B7800002600C053F000C065F038EC00F04E903D
:100B8800576A57505524E96E000E5620EA6EEE5209
:100B98000CE057505524E96E000E5620EA6EEECF51
:0E0BA80061F012EC01F0572AECD74E801200DB
:100BB6004EEC06F00E0EC16E936A816A7FDC90DC05
:100BC600010E0001656F38EC00F00C0E656F38EC15
:100BD60000F0536A4CDC98DF000E046E000E056EC2
:100BE600200E066E810E076EA6EC01F0000E046E56
:100BF600C00E056E7F0E066E880E076EBCDC00C04A
:100C060021F001C022F002C023F003C024F000C08E
:100C160053F001C054F002C055F003C056F0300E38
:100C2600576E000E586E61DD010E536E010E546E46
:100C3600150E556E000E566E7CDF020E536E050EB7
:100C4600546E300E556E000E566E73DF020E0B6E2E
:100C5600040E0C6EBA0E0D6E0D2EFED70C2EFCD7A2
:100C66000B2EFAD70000010E656F38EC00F00C0E63
:0A0C7600656F38EC00F0ADD7FFD732
:100C9C0010EE15F01B0E006E010E016E800EF66E3E
:0E0CAC000C0EF76E000EF86E59EC02F01200FE
:0C0C8000766F6C74696D6574726F3A00D9
:040C8C000000000064
:040C9000494E460083
:010C9400302F
:020C950030002D
:040C97004E614E005C
:020000040030CA
:0E000000000C1F1EFF8381FF0FC00FE00F409A
:00000001FF
